{
  "_format": "hh-sol-artifact-1",
  "contractName": "Tms",
  "sourceName": "contracts/Tms.sol",
  "abi": [
    {
      "inputs": [],
      "stateMutability": "nonpayable",
      "type": "constructor"
    },
    {
      "anonymous": false,
      "inputs": [
        {
          "indexed": false,
          "internalType": "string",
          "name": "name",
          "type": "string"
        }
      ],
      "name": "CategoryAdded",
      "type": "event"
    },
    {
      "anonymous": false,
      "inputs": [
        {
          "indexed": false,
          "internalType": "string",
          "name": "name",
          "type": "string"
        },
        {
          "indexed": false,
          "internalType": "bytes",
          "name": "image",
          "type": "bytes"
        },
        {
          "indexed": false,
          "internalType": "string",
          "name": "country",
          "type": "string"
        },
        {
          "indexed": false,
          "internalType": "string",
          "name": "city",
          "type": "string"
        },
        {
          "indexed": false,
          "internalType": "string",
          "name": "policy",
          "type": "string"
        },
        {
          "indexed": false,
          "internalType": "address",
          "name": "owner",
          "type": "address"
        }
      ],
      "name": "HotelAdded",
      "type": "event"
    },
    {
      "anonymous": false,
      "inputs": [
        {
          "indexed": false,
          "internalType": "string",
          "name": "_roomName",
          "type": "string"
        },
        {
          "indexed": false,
          "internalType": "string",
          "name": "_image",
          "type": "string"
        },
        {
          "indexed": false,
          "internalType": "uint256",
          "name": "_price",
          "type": "uint256"
        },
        {
          "indexed": false,
          "internalType": "uint256",
          "name": "catId",
          "type": "uint256"
        },
        {
          "indexed": false,
          "internalType": "uint256",
          "name": "hotelId",
          "type": "uint256"
        }
      ],
      "name": "RoomAdded",
      "type": "event"
    },
    {
      "inputs": [
        {
          "internalType": "string",
          "name": "_name",
          "type": "string"
        }
      ],
      "name": "addCategory",
      "outputs": [],
      "stateMutability": "nonpayable",
      "type": "function"
    },
    {
      "inputs": [
        {
          "internalType": "string",
          "name": "_name",
          "type": "string"
        },
        {
          "internalType": "string",
          "name": "_policy",
          "type": "string"
        },
        {
          "internalType": "uint256",
          "name": "_hotId",
          "type": "uint256"
        }
      ],
      "name": "addCoperationToHotel",
      "outputs": [],
      "stateMutability": "nonpayable",
      "type": "function"
    },
    {
      "inputs": [
        {
          "internalType": "string",
          "name": "_name",
          "type": "string"
        },
        {
          "internalType": "string",
          "name": "_image",
          "type": "string"
        },
        {
          "internalType": "string",
          "name": "_country",
          "type": "string"
        },
        {
          "internalType": "string",
          "name": "_city",
          "type": "string"
        },
        {
          "internalType": "string",
          "name": "_policy",
          "type": "string"
        }
      ],
      "name": "addHotel",
      "outputs": [],
      "stateMutability": "nonpayable",
      "type": "function"
    },
    {
      "inputs": [
        {
          "internalType": "string",
          "name": "_roomName",
          "type": "string"
        },
        {
          "internalType": "string",
          "name": "_image",
          "type": "string"
        },
        {
          "internalType": "uint256",
          "name": "_price",
          "type": "uint256"
        },
        {
          "internalType": "uint256",
          "name": "catId",
          "type": "uint256"
        },
        {
          "internalType": "uint256",
          "name": "hotelId",
          "type": "uint256"
        }
      ],
      "name": "addRoomToHotel",
      "outputs": [],
      "stateMutability": "nonpayable",
      "type": "function"
    },
    {
      "inputs": [
        {
          "internalType": "string",
          "name": "_name",
          "type": "string"
        },
        {
          "internalType": "enum Tms.TypeOfUser",
          "name": "_userType",
          "type": "uint8"
        },
        {
          "internalType": "address",
          "name": "_userAddress",
          "type": "address"
        },
        {
          "internalType": "uint256",
          "name": "copId",
          "type": "uint256"
        }
      ],
      "name": "addUserToHotel",
      "outputs": [],
      "stateMutability": "nonpayable",
      "type": "function"
    },
    {
      "inputs": [],
      "name": "getCategoryCount",
      "outputs": [
        {
          "internalType": "uint256",
          "name": "",
          "type": "uint256"
        }
      ],
      "stateMutability": "view",
      "type": "function"
    },
    {
      "inputs": [],
      "name": "getHotelCount",
      "outputs": [
        {
          "internalType": "uint256",
          "name": "",
          "type": "uint256"
        }
      ],
      "stateMutability": "view",
      "type": "function"
    },
    {
      "inputs": [],
      "name": "getRoomCount",
      "outputs": [
        {
          "internalType": "uint256",
          "name": "",
          "type": "uint256"
        }
      ],
      "stateMutability": "view",
      "type": "function"
    },
    {
      "inputs": [
        {
          "internalType": "uint256",
          "name": "",
          "type": "uint256"
        }
      ],
      "name": "idToCategory",
      "outputs": [
        {
          "internalType": "string",
          "name": "name",
          "type": "string"
        }
      ],
      "stateMutability": "view",
      "type": "function"
    },
    {
      "inputs": [
        {
          "internalType": "uint256",
          "name": "",
          "type": "uint256"
        }
      ],
      "name": "idToCoperation",
      "outputs": [
        {
          "internalType": "string",
          "name": "name",
          "type": "string"
        },
        {
          "internalType": "string",
          "name": "policy",
          "type": "string"
        },
        {
          "internalType": "address",
          "name": "companyWalletAddress",
          "type": "address"
        },
        {
          "components": [
            {
              "internalType": "string",
              "name": "name",
              "type": "string"
            },
            {
              "internalType": "bytes",
              "name": "image",
              "type": "bytes"
            },
            {
              "internalType": "string",
              "name": "country",
              "type": "string"
            },
            {
              "internalType": "string",
              "name": "city",
              "type": "string"
            },
            {
              "internalType": "string",
              "name": "policy",
              "type": "string"
            },
            {
              "internalType": "address",
              "name": "owner",
              "type": "address"
            }
          ],
          "internalType": "struct Tms.Hotel",
          "name": "hotel",
          "type": "tuple"
        }
      ],
      "stateMutability": "view",
      "type": "function"
    },
    {
      "inputs": [
        {
          "internalType": "uint256",
          "name": "",
          "type": "uint256"
        }
      ],
      "name": "idToHotel",
      "outputs": [
        {
          "internalType": "string",
          "name": "name",
          "type": "string"
        },
        {
          "internalType": "bytes",
          "name": "image",
          "type": "bytes"
        },
        {
          "internalType": "string",
          "name": "country",
          "type": "string"
        },
        {
          "internalType": "string",
          "name": "city",
          "type": "string"
        },
        {
          "internalType": "string",
          "name": "policy",
          "type": "string"
        },
        {
          "internalType": "address",
          "name": "owner",
          "type": "address"
        }
      ],
      "stateMutability": "view",
      "type": "function"
    },
    {
      "inputs": [
        {
          "internalType": "uint256",
          "name": "",
          "type": "uint256"
        }
      ],
      "name": "idToRoom",
      "outputs": [
        {
          "internalType": "string",
          "name": "room_name",
          "type": "string"
        },
        {
          "internalType": "string",
          "name": "image",
          "type": "string"
        },
        {
          "components": [
            {
              "internalType": "string",
              "name": "name",
              "type": "string"
            }
          ],
          "internalType": "struct Tms.RoomCategory",
          "name": "category",
          "type": "tuple"
        },
        {
          "components": [
            {
              "internalType": "string",
              "name": "name",
              "type": "string"
            },
            {
              "internalType": "bytes",
              "name": "image",
              "type": "bytes"
            },
            {
              "internalType": "string",
              "name": "country",
              "type": "string"
            },
            {
              "internalType": "string",
              "name": "city",
              "type": "string"
            },
            {
              "internalType": "string",
              "name": "policy",
              "type": "string"
            },
            {
              "internalType": "address",
              "name": "owner",
              "type": "address"
            }
          ],
          "internalType": "struct Tms.Hotel",
          "name": "hotel",
          "type": "tuple"
        },
        {
          "internalType": "bool",
          "name": "isVacant",
          "type": "bool"
        },
        {
          "internalType": "uint256",
          "name": "price",
          "type": "uint256"
        }
      ],
      "stateMutability": "view",
      "type": "function"
    },
    {
      "inputs": [
        {
          "internalType": "uint256",
          "name": "",
          "type": "uint256"
        }
      ],
      "name": "idToUser",
      "outputs": [
        {
          "internalType": "string",
          "name": "name",
          "type": "string"
        },
        {
          "internalType": "enum Tms.TypeOfUser",
          "name": "typeofuser",
          "type": "uint8"
        },
        {
          "internalType": "address",
          "name": "walletAddress",
          "type": "address"
        },
        {
          "components": [
            {
              "internalType": "string",
              "name": "name",
              "type": "string"
            },
            {
              "internalType": "string",
              "name": "policy",
              "type": "string"
            },
            {
              "internalType": "address",
              "name": "companyWalletAddress",
              "type": "address"
            },
            {
              "components": [
                {
                  "internalType": "string",
                  "name": "name",
                  "type": "string"
                },
                {
                  "internalType": "bytes",
                  "name": "image",
                  "type": "bytes"
                },
                {
                  "internalType": "string",
                  "name": "country",
                  "type": "string"
                },
                {
                  "internalType": "string",
                  "name": "city",
                  "type": "string"
                },
                {
                  "internalType": "string",
                  "name": "policy",
                  "type": "string"
                },
                {
                  "internalType": "address",
                  "name": "owner",
                  "type": "address"
                }
              ],
              "internalType": "struct Tms.Hotel",
              "name": "hotel",
              "type": "tuple"
            }
          ],
          "internalType": "struct Tms.Coperation",
          "name": "coperation",
          "type": "tuple"
        }
      ],
      "stateMutability": "view",
      "type": "function"
    }
  ],
  "bytecode": "0x608060405234801561001057600080fd5b5060008081905550600060018190555060006002819055506000600381905550600060048190555061331c806100476000396000f3fe608060405234801561001057600080fd5b50600436106100cf5760003560e01c806355aeac3e1161008c5780638dc22cba116100665780638dc22cba1461022f578063a215108b14610262578063b149aade1461027e578063eadddb3c1461029c576100cf565b806355aeac3e146101ab5780636b8135aa146101e0578063737f7c6114610213576100cf565b80630d0faaef146100d457806318232bf1146100f05780632e0dcbf7146101205780632f8bdfac1461013c578063492b44fb146101715780634d330b0f1461018d575b600080fd5b6100ee60048036038101906100e991906124e2565b6102ba565b005b61010a60048036038101906101059190612565565b6102c0565b6040516101179190612611565b60405180910390f35b61013a60048036038101906101359190612633565b610366565b005b61015660048036038101906101519190612565565b6103fe565b604051610168969594939291906126e0565b60405180910390f35b61018b60048036038101906101869190612764565b610702565b005b61019561086e565b6040516101a2919061287a565b60405180910390f35b6101c560048036038101906101c09190612565565b610878565b6040516101d796959493929190612a22565b60405180910390f35b6101fa60048036038101906101f59190612565565b610da7565b60405161020a9493929190612a9f565b60405180910390f35b61022d60048036038101906102289190612af9565b611241565b005b61024960048036038101906102449190612565565b611721565b6040516102599493929190612d11565b60405180910390f35b61027c60048036038101906102779190612d64565b611cce565b005b6102866122bc565b604051610293919061287a565b60405180910390f35b6102a46122c5565b6040516102b1919061287a565b60405180910390f35b50505050565b60066020528060005260406000206000915090508060000180546102e390612e46565b80601f016020809104026020016040519081016040528092919081815260200182805461030f90612e46565b801561035c5780601f106103315761010080835404028352916020019161035c565b820191906000526020600020905b81548152906001019060200180831161033f57829003601f168201915b5050505050905081565b600060405180602001604052808381525090508060066000600254815260200190815260200160002060008201518160000190816103a49190613023565b50905050600254600260008282546103bc9190613124565b925050819055507fdb74f4d32b97da9b3b9b907aa3fd5df938c018e13fe235d9883d0a0836c6bddb826040516103f29190612611565b60405180910390a15050565b600560205280600052604060002060009150905080600001805461042190612e46565b80601f016020809104026020016040519081016040528092919081815260200182805461044d90612e46565b801561049a5780601f1061046f5761010080835404028352916020019161049a565b820191906000526020600020905b81548152906001019060200180831161047d57829003601f168201915b5050505050908060010180546104af90612e46565b80601f01602080910402602001604051908101604052809291908181526020018280546104db90612e46565b80156105285780601f106104fd57610100808354040283529160200191610528565b820191906000526020600020905b81548152906001019060200180831161050b57829003601f168201915b50505050509080600201805461053d90612e46565b80601f016020809104026020016040519081016040528092919081815260200182805461056990612e46565b80156105b65780601f1061058b576101008083540402835291602001916105b6565b820191906000526020600020905b81548152906001019060200180831161059957829003601f168201915b5050505050908060030180546105cb90612e46565b80601f01602080910402602001604051908101604052809291908181526020018280546105f790612e46565b80156106445780601f1061061957610100808354040283529160200191610644565b820191906000526020600020905b81548152906001019060200180831161062757829003601f168201915b50505050509080600401805461065990612e46565b80601f016020809104026020016040519081016040528092919081815260200182805461068590612e46565b80156106d25780601f106106a7576101008083540402835291602001916106d2565b820191906000526020600020905b8154815290600101906020018083116106b557829003601f168201915b5050505050908060050160009054906101000a900473ffffffffffffffffffffffffffffffffffffffff16905086565b6040518060c001604052808681526020018581526020018481526020018381526020018281526020013373ffffffffffffffffffffffffffffffffffffffff168152506005600080548152602001908152602001600020600082015181600001908161076e9190613023565b50602082015181600101908161078491906131b3565b50604082015181600201908161079a9190613023565b5060608201518160030190816107b09190613023565b5060808201518160040190816107c69190613023565b5060a08201518160050160006101000a81548173ffffffffffffffffffffffffffffffffffffffff021916908373ffffffffffffffffffffffffffffffffffffffff16021790555090505060016000546108209190613124565b6000819055507f562673965da6c1600db389bb0b7f1fc4b512df242279e1a50761591ecb4dde8085858585853360405161085f969594939291906126e0565b60405180910390a15050505050565b6000600254905090565b600760205280600052604060002060009150905080600001805461089b90612e46565b80601f01602080910402602001604051908101604052809291908181526020018280546108c790612e46565b80156109145780601f106108e957610100808354040283529160200191610914565b820191906000526020600020905b8154815290600101906020018083116108f757829003601f168201915b50505050509080600101805461092990612e46565b80601f016020809104026020016040519081016040528092919081815260200182805461095590612e46565b80156109a25780601f10610977576101008083540402835291602001916109a2565b820191906000526020600020905b81548152906001019060200180831161098557829003601f168201915b505050505090806002016040518060200160405290816000820180546109c790612e46565b80601f01602080910402602001604051908101604052809291908181526020018280546109f390612e46565b8015610a405780601f10610a1557610100808354040283529160200191610a40565b820191906000526020600020905b815481529060010190602001808311610a2357829003601f168201915b50505050508152505090806003016040518060c0016040529081600082018054610a6990612e46565b80601f0160208091040260200160405190810160405280929190818152602001828054610a9590612e46565b8015610ae25780601f10610ab757610100808354040283529160200191610ae2565b820191906000526020600020905b815481529060010190602001808311610ac557829003601f168201915b50505050508152602001600182018054610afb90612e46565b80601f0160208091040260200160405190810160405280929190818152602001828054610b2790612e46565b8015610b745780601f10610b4957610100808354040283529160200191610b74565b820191906000526020600020905b815481529060010190602001808311610b5757829003601f168201915b50505050508152602001600282018054610b8d90612e46565b80601f0160208091040260200160405190810160405280929190818152602001828054610bb990612e46565b8015610c065780601f10610bdb57610100808354040283529160200191610c06565b820191906000526020600020905b815481529060010190602001808311610be957829003601f168201915b50505050508152602001600382018054610c1f90612e46565b80601f0160208091040260200160405190810160405280929190818152602001828054610c4b90612e46565b8015610c985780601f10610c6d57610100808354040283529160200191610c98565b820191906000526020600020905b815481529060010190602001808311610c7b57829003601f168201915b50505050508152602001600482018054610cb190612e46565b80601f0160208091040260200160405190810160405280929190818152602001828054610cdd90612e46565b8015610d2a5780601f10610cff57610100808354040283529160200191610d2a565b820191906000526020600020905b815481529060010190602001808311610d0d57829003601f168201915b505050505081526020016005820160009054906101000a900473ffffffffffffffffffffffffffffffffffffffff1673ffffffffffffffffffffffffffffffffffffffff1673ffffffffffffffffffffffffffffffffffffffff1681525050908060090160009054906101000a900460ff169080600a0154905086565b6009602052806000526040600020600091509050806000018054610dca90612e46565b80601f0160208091040260200160405190810160405280929190818152602001828054610df690612e46565b8015610e435780601f10610e1857610100808354040283529160200191610e43565b820191906000526020600020905b815481529060010190602001808311610e2657829003601f168201915b505050505090806001018054610e5890612e46565b80601f0160208091040260200160405190810160405280929190818152602001828054610e8490612e46565b8015610ed15780601f10610ea657610100808354040283529160200191610ed1565b820191906000526020600020905b815481529060010190602001808311610eb457829003601f168201915b5050505050908060020160009054906101000a900473ffffffffffffffffffffffffffffffffffffffff1690806003016040518060c0016040529081600082018054610f1c90612e46565b80601f0160208091040260200160405190810160405280929190818152602001828054610f4890612e46565b8015610f955780601f10610f6a57610100808354040283529160200191610f95565b820191906000526020600020905b815481529060010190602001808311610f7857829003601f168201915b50505050508152602001600182018054610fae90612e46565b80601f0160208091040260200160405190810160405280929190818152602001828054610fda90612e46565b80156110275780601f10610ffc57610100808354040283529160200191611027565b820191906000526020600020905b81548152906001019060200180831161100a57829003601f168201915b5050505050815260200160028201805461104090612e46565b80601f016020809104026020016040519081016040528092919081815260200182805461106c90612e46565b80156110b95780601f1061108e576101008083540402835291602001916110b9565b820191906000526020600020905b81548152906001019060200180831161109c57829003601f168201915b505050505081526020016003820180546110d290612e46565b80601f01602080910402602001604051908101604052809291908181526020018280546110fe90612e46565b801561114b5780601f106111205761010080835404028352916020019161114b565b820191906000526020600020905b81548152906001019060200180831161112e57829003601f168201915b5050505050815260200160048201805461116490612e46565b80601f016020809104026020016040519081016040528092919081815260200182805461119090612e46565b80156111dd5780601f106111b2576101008083540402835291602001916111dd565b820191906000526020600020905b8154815290600101906020018083116111c057829003601f168201915b505050505081526020016005820160009054906101000a900473ffffffffffffffffffffffffffffffffffffffff1673ffffffffffffffffffffffffffffffffffffffff1673ffffffffffffffffffffffffffffffffffffffff1681525050905084565b6000600560008381526020019081526020016000206040518060c001604052908160008201805461127190612e46565b80601f016020809104026020016040519081016040528092919081815260200182805461129d90612e46565b80156112ea5780601f106112bf576101008083540402835291602001916112ea565b820191906000526020600020905b8154815290600101906020018083116112cd57829003601f168201915b5050505050815260200160018201805461130390612e46565b80601f016020809104026020016040519081016040528092919081815260200182805461132f90612e46565b801561137c5780601f106113515761010080835404028352916020019161137c565b820191906000526020600020905b81548152906001019060200180831161135f57829003601f168201915b5050505050815260200160028201805461139590612e46565b80601f01602080910402602001604051908101604052809291908181526020018280546113c190612e46565b801561140e5780601f106113e35761010080835404028352916020019161140e565b820191906000526020600020905b8154815290600101906020018083116113f157829003601f168201915b5050505050815260200160038201805461142790612e46565b80601f016020809104026020016040519081016040528092919081815260200182805461145390612e46565b80156114a05780601f10611475576101008083540402835291602001916114a0565b820191906000526020600020905b81548152906001019060200180831161148357829003601f168201915b505050505081526020016004820180546114b990612e46565b80601f01602080910402602001604051908101604052809291908181526020018280546114e590612e46565b80156115325780601f1061150757610100808354040283529160200191611532565b820191906000526020600020905b81548152906001019060200180831161151557829003601f168201915b505050505081526020016005820160009054906101000a900473ffffffffffffffffffffffffffffffffffffffff1673ffffffffffffffffffffffffffffffffffffffff1673ffffffffffffffffffffffffffffffffffffffff16815250509050600060405180608001604052808681526020018581526020013373ffffffffffffffffffffffffffffffffffffffff1681526020018381525090508060096000600454815260200190815260200160002060008201518160000190816115f99190613023565b50602082015181600101908161160f9190613023565b5060408201518160020160006101000a81548173ffffffffffffffffffffffffffffffffffffffff021916908373ffffffffffffffffffffffffffffffffffffffff16021790555060608201518160030160008201518160000190816116759190613023565b50602082015181600101908161168b91906131b3565b5060408201518160020190816116a19190613023565b5060608201518160030190816116b79190613023565b5060808201518160040190816116cd9190613023565b5060a08201518160050160006101000a81548173ffffffffffffffffffffffffffffffffffffffff021916908373ffffffffffffffffffffffffffffffffffffffff16021790555050509050505050505050565b600860205280600052604060002060009150905080600001805461174490612e46565b80601f016020809104026020016040519081016040528092919081815260200182805461177090612e46565b80156117bd5780601f10611792576101008083540402835291602001916117bd565b820191906000526020600020905b8154815290600101906020018083116117a057829003601f168201915b5050505050908060010160009054906101000a900460ff16908060010160019054906101000a900473ffffffffffffffffffffffffffffffffffffffff16908060020160405180608001604052908160008201805461181b90612e46565b80601f016020809104026020016040519081016040528092919081815260200182805461184790612e46565b80156118945780601f1061186957610100808354040283529160200191611894565b820191906000526020600020905b81548152906001019060200180831161187757829003601f168201915b505050505081526020016001820180546118ad90612e46565b80601f01602080910402602001604051908101604052809291908181526020018280546118d990612e46565b80156119265780601f106118fb57610100808354040283529160200191611926565b820191906000526020600020905b81548152906001019060200180831161190957829003601f168201915b505050505081526020016002820160009054906101000a900473ffffffffffffffffffffffffffffffffffffffff1673ffffffffffffffffffffffffffffffffffffffff1673ffffffffffffffffffffffffffffffffffffffff168152602001600382016040518060c00160405290816000820180546119a590612e46565b80601f01602080910402602001604051908101604052809291908181526020018280546119d190612e46565b8015611a1e5780601f106119f357610100808354040283529160200191611a1e565b820191906000526020600020905b815481529060010190602001808311611a0157829003601f168201915b50505050508152602001600182018054611a3790612e46565b80601f0160208091040260200160405190810160405280929190818152602001828054611a6390612e46565b8015611ab05780601f10611a8557610100808354040283529160200191611ab0565b820191906000526020600020905b815481529060010190602001808311611a9357829003601f168201915b50505050508152602001600282018054611ac990612e46565b80601f0160208091040260200160405190810160405280929190818152602001828054611af590612e46565b8015611b425780601f10611b1757610100808354040283529160200191611b42565b820191906000526020600020905b815481529060010190602001808311611b2557829003601f168201915b50505050508152602001600382018054611b5b90612e46565b80601f0160208091040260200160405190810160405280929190818152602001828054611b8790612e46565b8015611bd45780601f10611ba957610100808354040283529160200191611bd4565b820191906000526020600020905b815481529060010190602001808311611bb757829003601f168201915b50505050508152602001600482018054611bed90612e46565b80601f0160208091040260200160405190810160405280929190818152602001828054611c1990612e46565b8015611c665780601f10611c3b57610100808354040283529160200191611c66565b820191906000526020600020905b815481529060010190602001808311611c4957829003601f168201915b505050505081526020016005820160009054906101000a900473ffffffffffffffffffffffffffffffffffffffff1673ffffffffffffffffffffffffffffffffffffffff1673ffffffffffffffffffffffffffffffffffffffff168152505081525050905084565b600060066000848152602001908152602001600020604051806020016040529081600082018054611cfe90612e46565b80601f0160208091040260200160405190810160405280929190818152602001828054611d2a90612e46565b8015611d775780601f10611d4c57610100808354040283529160200191611d77565b820191906000526020600020905b815481529060010190602001808311611d5a57829003601f168201915b50505050508152505090506000600560008481526020019081526020016000206040518060c0016040529081600082018054611db290612e46565b80601f0160208091040260200160405190810160405280929190818152602001828054611dde90612e46565b8015611e2b5780601f10611e0057610100808354040283529160200191611e2b565b820191906000526020600020905b815481529060010190602001808311611e0e57829003601f168201915b50505050508152602001600182018054611e4490612e46565b80601f0160208091040260200160405190810160405280929190818152602001828054611e7090612e46565b8015611ebd5780601f10611e9257610100808354040283529160200191611ebd565b820191906000526020600020905b815481529060010190602001808311611ea057829003601f168201915b50505050508152602001600282018054611ed690612e46565b80601f0160208091040260200160405190810160405280929190818152602001828054611f0290612e46565b8015611f4f5780601f10611f2457610100808354040283529160200191611f4f565b820191906000526020600020905b815481529060010190602001808311611f3257829003601f168201915b50505050508152602001600382018054611f6890612e46565b80601f0160208091040260200160405190810160405280929190818152602001828054611f9490612e46565b8015611fe15780601f10611fb657610100808354040283529160200191611fe1565b820191906000526020600020905b815481529060010190602001808311611fc457829003601f168201915b50505050508152602001600482018054611ffa90612e46565b80601f016020809104026020016040519081016040528092919081815260200182805461202690612e46565b80156120735780601f1061204857610100808354040283529160200191612073565b820191906000526020600020905b81548152906001019060200180831161205657829003601f168201915b505050505081526020016005820160009054906101000a900473ffffffffffffffffffffffffffffffffffffffff1673ffffffffffffffffffffffffffffffffffffffff1673ffffffffffffffffffffffffffffffffffffffff1681525050905060006040518060c001604052808981526020018881526020018481526020018381526020016000151581526020018781525090508060076000600154815260200190815260200160002060008201518160000190816121339190613023565b5060208201518160010190816121499190613023565b5060408201518160020160008201518160000190816121689190613023565b50505060608201518160030160008201518160000190816121899190613023565b50602082015181600101908161219f91906131b3565b5060408201518160020190816121b59190613023565b5060608201518160030190816121cb9190613023565b5060808201518160040190816121e19190613023565b5060a08201518160050160006101000a81548173ffffffffffffffffffffffffffffffffffffffff021916908373ffffffffffffffffffffffffffffffffffffffff160217905550505060808201518160090160006101000a81548160ff02191690831515021790555060a082015181600a01559050506001546001600082825461226c9190613124565b925050819055507f6283c2497faa528479aef89bea2e16ebc42a39ac98020c395e7a2579d5edf4b188888888886040516122aa959493929190613285565b60405180910390a15050505050505050565b60008054905090565b6000600154905090565b6000604051905090565b600080fd5b600080fd5b600080fd5b600080fd5b6000601f19601f8301169050919050565b7f4e487b7100000000000000000000000000000000000000000000000000000000600052604160045260246000fd5b612336826122ed565b810181811067ffffffffffffffff82111715612355576123546122fe565b5b80604052505050565b60006123686122cf565b9050612374828261232d565b919050565b600067ffffffffffffffff821115612394576123936122fe565b5b61239d826122ed565b9050602081019050919050565b82818337600083830152505050565b60006123cc6123c784612379565b61235e565b9050828152602081018484840111156123e8576123e76122e8565b5b6123f38482856123aa565b509392505050565b600082601f8301126124105761240f6122e3565b5b81356124208482602086016123b9565b91505092915050565b6002811061243657600080fd5b50565b60008135905061244881612429565b92915050565b600073ffffffffffffffffffffffffffffffffffffffff82169050919050565b60006124798261244e565b9050919050565b6124898161246e565b811461249457600080fd5b50565b6000813590506124a681612480565b92915050565b6000819050919050565b6124bf816124ac565b81146124ca57600080fd5b50565b6000813590506124dc816124b6565b92915050565b600080600080608085870312156124fc576124fb6122d9565b5b600085013567ffffffffffffffff81111561251a576125196122de565b5b612526878288016123fb565b945050602061253787828801612439565b935050604061254887828801612497565b9250506060612559878288016124cd565b91505092959194509250565b60006020828403121561257b5761257a6122d9565b5b6000612589848285016124cd565b91505092915050565b600081519050919050565b600082825260208201905092915050565b60005b838110156125cc5780820151818401526020810190506125b1565b60008484015250505050565b60006125e382612592565b6125ed818561259d565b93506125fd8185602086016125ae565b612606816122ed565b840191505092915050565b6000602082019050818103600083015261262b81846125d8565b905092915050565b600060208284031215612649576126486122d9565b5b600082013567ffffffffffffffff811115612667576126666122de565b5b612673848285016123fb565b91505092915050565b600081519050919050565b600082825260208201905092915050565b60006126a38261267c565b6126ad8185612687565b93506126bd8185602086016125ae565b6126c6816122ed565b840191505092915050565b6126da8161246e565b82525050565b600060c08201905081810360008301526126fa81896125d8565b9050818103602083015261270e8188612698565b9050818103604083015261272281876125d8565b9050818103606083015261273681866125d8565b9050818103608083015261274a81856125d8565b905061275960a08301846126d1565b979650505050505050565b600080600080600060a086880312156127805761277f6122d9565b5b600086013567ffffffffffffffff81111561279e5761279d6122de565b5b6127aa888289016123fb565b955050602086013567ffffffffffffffff8111156127cb576127ca6122de565b5b6127d7888289016123fb565b945050604086013567ffffffffffffffff8111156127f8576127f76122de565b5b612804888289016123fb565b935050606086013567ffffffffffffffff811115612825576128246122de565b5b612831888289016123fb565b925050608086013567ffffffffffffffff811115612852576128516122de565b5b61285e888289016123fb565b9150509295509295909350565b612874816124ac565b82525050565b600060208201905061288f600083018461286b565b92915050565b600082825260208201905092915050565b60006128b182612592565b6128bb8185612895565b93506128cb8185602086016125ae565b6128d4816122ed565b840191505092915050565b600060208301600083015184820360008601526128fc82826128a6565b9150508091505092915050565b600082825260208201905092915050565b60006129258261267c565b61292f8185612909565b935061293f8185602086016125ae565b612948816122ed565b840191505092915050565b61295c8161246e565b82525050565b600060c083016000830151848203600086015261297f82826128a6565b91505060208301518482036020860152612999828261291a565b915050604083015184820360408601526129b382826128a6565b915050606083015184820360608601526129cd82826128a6565b915050608083015184820360808601526129e782826128a6565b91505060a08301516129fc60a0860182612953565b508091505092915050565b60008115159050919050565b612a1c81612a07565b82525050565b600060c0820190508181036000830152612a3c81896125d8565b90508181036020830152612a5081886125d8565b90508181036040830152612a6481876128df565b90508181036060830152612a788186612962565b9050612a876080830185612a13565b612a9460a083018461286b565b979650505050505050565b60006080820190508181036000830152612ab981876125d8565b90508181036020830152612acd81866125d8565b9050612adc60408301856126d1565b8181036060830152612aee8184612962565b905095945050505050565b600080600060608486031215612b1257612b116122d9565b5b600084013567ffffffffffffffff811115612b3057612b2f6122de565b5b612b3c868287016123fb565b935050602084013567ffffffffffffffff811115612b5d57612b5c6122de565b5b612b69868287016123fb565b9250506040612b7a868287016124cd565b9150509250925092565b7f4e487b7100000000000000000000000000000000000000000000000000000000600052602160045260246000fd5b60028110612bc457612bc3612b84565b5b50565b6000819050612bd582612bb3565b919050565b6000612be582612bc7565b9050919050565b612bf581612bda565b82525050565b600060c0830160008301518482036000860152612c1882826128a6565b91505060208301518482036020860152612c32828261291a565b91505060408301518482036040860152612c4c82826128a6565b91505060608301518482036060860152612c6682826128a6565b91505060808301518482036080860152612c8082826128a6565b91505060a0830151612c9560a0860182612953565b508091505092915050565b60006080830160008301518482036000860152612cbd82826128a6565b91505060208301518482036020860152612cd782826128a6565b9150506040830151612cec6040860182612953565b5060608301518482036060860152612d048282612bfb565b9150508091505092915050565b60006080820190508181036000830152612d2b81876125d8565b9050612d3a6020830186612bec565b612d4760408301856126d1565b8181036060830152612d598184612ca0565b905095945050505050565b600080600080600060a08688031215612d8057612d7f6122d9565b5b600086013567ffffffffffffffff811115612d9e57612d9d6122de565b5b612daa888289016123fb565b955050602086013567ffffffffffffffff811115612dcb57612dca6122de565b5b612dd7888289016123fb565b9450506040612de8888289016124cd565b9350506060612df9888289016124cd565b9250506080612e0a888289016124cd565b9150509295509295909350565b7f4e487b7100000000000000000000000000000000000000000000000000000000600052602260045260246000fd5b60006002820490506001821680612e5e57607f821691505b602082108103612e7157612e70612e17565b5b50919050565b60008190508160005260206000209050919050565b60006020601f8301049050919050565b600082821b905092915050565b600060088302612ed97fffffffffffffffffffffffffffffffffffffffffffffffffffffffffffffffff82612e9c565b612ee38683612e9c565b95508019841693508086168417925050509392505050565b6000819050919050565b6000612f20612f1b612f16846124ac565b612efb565b6124ac565b9050919050565b6000819050919050565b612f3a83612f05565b612f4e612f4682612f27565b848454612ea9565b825550505050565b600090565b612f63612f56565b612f6e818484612f31565b505050565b5b81811015612f9257612f87600082612f5b565b600181019050612f74565b5050565b601f821115612fd757612fa881612e77565b612fb184612e8c565b81016020851015612fc0578190505b612fd4612fcc85612e8c565b830182612f73565b50505b505050565b600082821c905092915050565b6000612ffa60001984600802612fdc565b1980831691505092915050565b60006130138383612fe9565b9150826002028217905092915050565b61302c82612592565b67ffffffffffffffff811115613045576130446122fe565b5b61304f8254612e46565b61305a828285612f96565b600060209050601f83116001811461308d576000841561307b578287015190505b6130858582613007565b8655506130ed565b601f19841661309b86612e77565b60005b828110156130c35784890151825560018201915060208501945060208101905061309e565b868310156130e057848901516130dc601f891682612fe9565b8355505b6001600288020188555050505b505050505050565b7f4e487b7100000000000000000000000000000000000000000000000000000000600052601160045260246000fd5b600061312f826124ac565b915061313a836124ac565b9250828201905080821115613152576131516130f5565b5b92915050565b60008190508160005260206000209050919050565b601f8211156131ae5761317f81613158565b61318884612e8c565b81016020851015613197578190505b6131ab6131a385612e8c565b830182612f73565b50505b505050565b6131bc8261267c565b67ffffffffffffffff8111156131d5576131d46122fe565b5b6131df8254612e46565b6131ea82828561316d565b600060209050601f83116001811461321d576000841561320b578287015190505b6132158582613007565b86555061327d565b601f19841661322b86613158565b60005b828110156132535784890151825560018201915060208501945060208101905061322e565b86831015613270578489015161326c601f891682612fe9565b8355505b6001600288020188555050505b505050505050565b600060a082019050818103600083015261329f81886125d8565b905081810360208301526132b381876125d8565b90506132c2604083018661286b565b6132cf606083018561286b565b6132dc608083018461286b565b969550505050505056fea26469706673582212209363df6e901d17e942cca0cc1e878f429e99536137a7ad3fce91c4c977db3d7564736f6c63430008130033",
  "linkReferences": {},
  "deployedLinkReferences": {}
}